{
  "contractName": "Faucet",
  "abi": [
    {
      "inputs": [],
      "stateMutability": "nonpayable",
      "type": "constructor"
    },
    {
      "inputs": [
        {
          "internalType": "address",
          "name": "",
          "type": "address"
        }
      ],
      "name": "funders",
      "outputs": [
        {
          "internalType": "bool",
          "name": "",
          "type": "bool"
        }
      ],
      "stateMutability": "view",
      "type": "function"
    },
    {
      "inputs": [
        {
          "internalType": "uint256",
          "name": "",
          "type": "uint256"
        }
      ],
      "name": "lutFunders",
      "outputs": [
        {
          "internalType": "address",
          "name": "",
          "type": "address"
        }
      ],
      "stateMutability": "view",
      "type": "function"
    },
    {
      "inputs": [],
      "name": "numOfFunders",
      "outputs": [
        {
          "internalType": "uint256",
          "name": "",
          "type": "uint256"
        }
      ],
      "stateMutability": "view",
      "type": "function"
    },
    {
      "inputs": [],
      "name": "owner",
      "outputs": [
        {
          "internalType": "address",
          "name": "",
          "type": "address"
        }
      ],
      "stateMutability": "view",
      "type": "function"
    },
    {
      "stateMutability": "payable",
      "type": "receive"
    },
    {
      "inputs": [],
      "name": "addFunds",
      "outputs": [],
      "stateMutability": "payable",
      "type": "function"
    },
    {
      "inputs": [],
      "name": "getAllFunders",
      "outputs": [
        {
          "internalType": "address[]",
          "name": "",
          "type": "address[]"
        }
      ],
      "stateMutability": "view",
      "type": "function"
    },
    {
      "inputs": [
        {
          "internalType": "uint256",
          "name": "withdrawAmount",
          "type": "uint256"
        }
      ],
      "name": "withdraw",
      "outputs": [],
      "stateMutability": "nonpayable",
      "type": "function"
    },
    {
      "inputs": [
        {
          "internalType": "address",
          "name": "newOwner",
          "type": "address"
        }
      ],
      "name": "transferOwnership",
      "outputs": [],
      "stateMutability": "nonpayable",
      "type": "function"
    }
  ],
  "bytecode": "0x608060405234801561001057600080fd5b5033600360006101000a81548173ffffffffffffffffffffffffffffffffffffffff021916908373ffffffffffffffffffffffffffffffffffffffff160217905550610a5a806100616000396000f3fe60806040526004361061007f5760003560e01c80638da5cb5b1161004e5780638da5cb5b14610159578063a26759cb14610184578063af7f2c9b1461018e578063f2fde38b146101b957610086565b8063031b36771461008b5780631f8947ea146100c85780632e1a7d4d146101055780636fbbb55d1461012e57610086565b3661008657005b600080fd5b34801561009757600080fd5b506100b260048036038101906100ad9190610645565b6101e2565b6040516100bf919061068d565b60405180910390f35b3480156100d457600080fd5b506100ef60048036038101906100ea91906106de565b610202565b6040516100fc919061071a565b60405180910390f35b34801561011157600080fd5b5061012c600480360381019061012791906106de565b610235565b005b34801561013a57600080fd5b506101436102cb565b60405161015091906107f3565b60405180910390f35b34801561016557600080fd5b5061016e6103c4565b60405161017b919061071a565b60405180910390f35b61018c6103ea565b005b34801561019a57600080fd5b506101a3610508565b6040516101b09190610824565b60405180910390f35b3480156101c557600080fd5b506101e060048036038101906101db9190610645565b61050e565b005b60016020528060005260406000206000915054906101000a900460ff1681565b60026020528060005260406000206000915054906101000a900473ffffffffffffffffffffffffffffffffffffffff1681565b8066038d7ea4c68000811015610280576040517f08c379a0000000000000000000000000000000000000000000000000000000008152600401610277906108c2565b60405180910390fd5b3373ffffffffffffffffffffffffffffffffffffffff166108fc839081150290604051600060405180830381858888f193505050501580156102c6573d6000803e3d6000fd5b505050565b60606000805467ffffffffffffffff8111156102ea576102e96108e2565b5b6040519080825280602002602001820160405280156103185781602001602082028036833780820191505090505b50905060005b6000548110156103bc576002600082815260200190815260200160002060009054906101000a900473ffffffffffffffffffffffffffffffffffffffff1682828151811061036f5761036e610911565b5b602002602001019073ffffffffffffffffffffffffffffffffffffffff16908173ffffffffffffffffffffffffffffffffffffffff168152505080806103b49061096f565b91505061031e565b508091505090565b600360009054906101000a900473ffffffffffffffffffffffffffffffffffffffff1681565b6000339050600160008273ffffffffffffffffffffffffffffffffffffffff1673ffffffffffffffffffffffffffffffffffffffff16815260200190815260200160002060009054906101000a900460ff166105055760008060008154809291906104549061096f565b919050559050816002600083815260200190815260200160002060006101000a81548173ffffffffffffffffffffffffffffffffffffffff021916908373ffffffffffffffffffffffffffffffffffffffff16021790555060018060008473ffffffffffffffffffffffffffffffffffffffff1673ffffffffffffffffffffffffffffffffffffffff16815260200190815260200160002060006101000a81548160ff021916908315150217905550505b50565b60005481565b600360009054906101000a900473ffffffffffffffffffffffffffffffffffffffff1673ffffffffffffffffffffffffffffffffffffffff163373ffffffffffffffffffffffffffffffffffffffff161461059e576040517f08c379a000000000000000000000000000000000000000000000000000000000815260040161059590610a04565b60405180910390fd5b80600360006101000a81548173ffffffffffffffffffffffffffffffffffffffff021916908373ffffffffffffffffffffffffffffffffffffffff16021790555050565b600080fd5b600073ffffffffffffffffffffffffffffffffffffffff82169050919050565b6000610612826105e7565b9050919050565b61062281610607565b811461062d57600080fd5b50565b60008135905061063f81610619565b92915050565b60006020828403121561065b5761065a6105e2565b5b600061066984828501610630565b91505092915050565b60008115159050919050565b61068781610672565b82525050565b60006020820190506106a2600083018461067e565b92915050565b6000819050919050565b6106bb816106a8565b81146106c657600080fd5b50565b6000813590506106d8816106b2565b92915050565b6000602082840312156106f4576106f36105e2565b5b6000610702848285016106c9565b91505092915050565b61071481610607565b82525050565b600060208201905061072f600083018461070b565b92915050565b600081519050919050565b600082825260208201905092915050565b6000819050602082019050919050565b61076a81610607565b82525050565b600061077c8383610761565b60208301905092915050565b6000602082019050919050565b60006107a082610735565b6107aa8185610740565b93506107b583610751565b8060005b838110156107e65781516107cd8882610770565b97506107d883610788565b9250506001810190506107b9565b5085935050505092915050565b6000602082019050818103600083015261080d8184610795565b905092915050565b61081e816106a8565b82525050565b60006020820190506108396000830184610815565b92915050565b600082825260208201905092915050565b7f43616e2774207769746864726177206c657373207468616e20302e303031204560008201527f5448000000000000000000000000000000000000000000000000000000000000602082015250565b60006108ac60228361083f565b91506108b782610850565b604082019050919050565b600060208201905081810360008301526108db8161089f565b9050919050565b7f4e487b7100000000000000000000000000000000000000000000000000000000600052604160045260246000fd5b7f4e487b7100000000000000000000000000000000000000000000000000000000600052603260045260246000fd5b7f4e487b7100000000000000000000000000000000000000000000000000000000600052601160045260246000fd5b600061097a826106a8565b91507fffffffffffffffffffffffffffffffffffffffffffffffffffffffffffffffff8214156109ad576109ac610940565b5b600182019050919050565b7f4f6e6c79206f776e657220616c6c6f77656420746f20646f2069740000000000600082015250565b60006109ee601b8361083f565b91506109f9826109b8565b602082019050919050565b60006020820190508181036000830152610a1d816109e1565b905091905056fea264697066735822122043827984229755f0b4f7cba656fe776842d57492aca0a104f13cf1ff8942621364736f6c634300080b0033",
  "immutableReferences": {},
  "source": "// SPDX-License-Identifier: MIT\r\npragma solidity >=0.4.22 <0.9.0;\r\n\r\ncontract Faucet {\r\n    \r\n    uint public numOfFunders;\r\n    mapping(address => bool) public funders;\r\n    mapping(uint => address) public lutFunders;\r\n    address public owner;\r\n\r\n    constructor () {\r\n        owner = msg.sender;\r\n    }\r\n\r\n    modifier limitWithDraw(uint withdrawAmount) {\r\n        require(\r\n        withdrawAmount >= 1000000000000000,\r\n         \"Can't withdraw less than 0.001 ETH\"\r\n         );       \r\n         _;\r\n    }\r\n\r\n    modifier onlyOwner() {\r\n        require(\r\n            msg.sender == owner,\r\n            \"Only owner allowed to do it\"\r\n        );\r\n        _;\r\n    }\r\n\r\n    receive() external payable {}\r\n\r\n    function addFunds() external payable{\r\n        address funder = msg.sender;\r\n\r\n        if (!funders[funder]) {\r\n            uint index = numOfFunders++;\r\n            lutFunders[index] = funder;\r\n            funders[funder] = true;\r\n        }\r\n    }\r\n\r\n    function getAllFunders() external view returns(address[] memory) {\r\n        address[] memory _funders = new address[](numOfFunders);\r\n        for (uint i = 0; i<numOfFunders; i++) {\r\n            _funders[i] = lutFunders[i];\r\n        }\r\n        return _funders;\r\n    }\r\n\r\n    function withdraw(uint withdrawAmount) external limitWithDraw(withdrawAmount) {\r\n        payable(msg.sender).transfer(withdrawAmount);\r\n    }\r\n\r\n    function transferOwnership(address newOwner) external onlyOwner {\r\n        owner = newOwner;\r\n    }\r\n\r\n\r\n}",
  "sourcePath": "D:\\JavaScript Projects\\Solidity\\raw_faucet_dapp\\contracts\\FaucetContract.sol",
  "compiler": {
    "name": "solc",
    "version": "0.8.11+commit.d7f03943.Emscripten.clang"
  },
  "schemaVersion": "3.4.4",
  "updatedAt": "2022-02-06T10:29:28.823Z",
  "devdoc": {
    "kind": "dev",
    "methods": {},
    "version": 1
  },
  "userdoc": {
    "kind": "user",
    "methods": {},
    "version": 1
  }
}